:040000009EEF04F07B
:08000800046ED8CF05F0E0CF33
:1000100006F00001E9CF0CF0EACF07F0E1CF08F0DD
:10002000E2CF09F0D9CF0AF0DACF0BF0F3CF12F01C
:10003000F4CF13F0FACF14F0F5CF15F0F6CF16F099
:10004000F7CF17F000C00EF001C00FF002C010F0A3
:1000500003C011F0F2AA30EF00F0F2B463EF00F049
:100060009DA036EF00F09EB06BEF00F0F2A83CEFE1
:1000700000F0F2B2B8EF00F00EC000F00FC001F0D7
:1000800010C002F011C003F00CC0E9FF07C0EAFF86
:10009000078E08C0E1FF09C0E2FF0AC0D9FF0BC00C
:1000A000DAFF12C0F3FF13C0F4FF14C0FAFF15C04B
:1000B000F5FF16C0F6FF17C0F7FF045006C0E0FFBB
:1000C00005C0D8FF100020C0D7FF1FC0D6FF8B7817
:1000D000F2943CEF00F02D50036E2C50D8B42D0656
:1000E0002C06626F03C063F0625307E1635305E1BE
:1000F00023C02DF022C02CF021862BC063F02A50A3
:10010000D8B42B062A06626F625306E1635304E1FA
:100110002B6A080E2A6E218425C063F02450D8B4BF
:1001200025062406626F625306E1635304E1256AE3
:100130004D0E246E218027C063F02650D8B42706C8
:100140002606626F625306E1635304E1276A990E43
:10015000266E218229C063F02850D8B429062806CB
:10016000626F625302E1635300E19E903CEF00F046
:10017000F2923CEF00F0EF0E926EFB0E936E8A6AE5
:10018000E10E946E5F0E956E9680968296849686AA
:10019000C2EF04F0C150C00B0F09C16EC050C00BBC
:1001A0000209C06EC08EC280820ED56E850ECD6EE5
:1001B000F28A9D80F29CF29EF2BEFDD7C150C00B28
:1001C0000609C16E200E016EC250C30B0110C26E33
:1001D000100E006E002EFED70000C6EF04F04E5049
:1001E000D8B471D0006E5250D8B46DD0002604E35C
:1001F000810E002668E204D07F0E005E64E363E0B7
:100200004FC056F05350561A4F8E538E51505502D0
:10021000F4CF58F050505402F4CF03F0F3CF57F01E
:100220005502F3505826F4505722000E0322515025
:100230005402F3505826F4505722000E026A03224B
:1002400002224F505502F3505726F4500322000E5D
:1002500002224F505402F3500326F4500222000EA3
:10026000016A012251505302F3505726F4500322E1
:10027000000E0222012250505302F3500326F45084
:100280000222000E01224F505302F3500226F45076
:100290000122002A01BE05D0573603360236013648
:1002A0000006000E57AE0AD0032A02220122015096
:1002B00005E1025003E1035001E1002A56BE018E20
:1002C00056AE019E04D0006A016A026A036A1200F7
:1002D0008E0E006E53C001F052C002F0036A01524C
:1002E00009E102C001F0026A080E005E015202E15B
:1002F000006A08D0D89001BE04D00236013600064C
:10030000F9D7019E1200800ED8B2571A5C6A5D6A56
:1003100053C05BF057505B1A5250D8B4DCD05A6EC1
:10032000006E5650D8B4E0D05A5ED8B481D03DE3C8
:1003300057C060F0608F58C05FF059C05EF05D6AD2
:10034000D89060335F325E325D325A2EF8D75BAEA2
:1003500003D05C80DDD05C905A905C88EA6A550ED0
:10036000E96EE9D05C985BBE0AD05AA013D0603326
:100370005F325E325D32002AD8B4C5D00BD060BF88
:100380000CD0D8905D365E365F3660370006D8B444
:10039000BAD0F5D75C8C6BD05C9C53C05BF053AE8D
:1003A00002D0608FA9D0609FA7D056C05AF056C027
:1003B00000F052505A5E53C060F0608F54C05FF03E
:1003C00055C05EF05D6AD89060335F325E325D3258
:1003D0005A2EF8D75BAE03D05C829AD05C925A90CA
:1003E0005C8AEA6A590EE96EA6D05C9A5BBE0AD0B6
:1003F0005AA013D060335F325E325D32002AD8B427
:1004000082D00BD060BF0CD0D8905D365E365F36A0
:1004100060370006D8B477D0F5D75C8E28D05C9EC4
:1004200057C05BF057AE02D0608F66D0609F64D03B
:1004300057C060F0608F58C05FF059C05EF05BAE8F
:1004400004D0609F5C8464D05C945D6A5A90EA6AD0
:10045000550EE96E70D05BBE1CD053C05BF05AA045
:1004600006D060335F325E325D32002A4CE05DAE12
:100470000BD05E2A09E15F2A07E1602B05E16033BA
:100480005F325E32002A3FE05CBC86D75CBEC7D7D5
:100490001CD0800E601B60AF04D03AD057C05BF018
:1004A0000AD053C05BF0605306E15F5204E15E5234
:1004B00002E1006A21D060BF08D0D8905D365E3678
:1004C0005F366037002EF7D71ED05BAE02D0608F4C
:1004D00013D0609F11D056C000F057C060F058C0D4
:1004E0005FF059C05EF008D052C000F053C060F019
:1004F00054C05FF055C05EF060C001F05FC002F014
:100500005EC003F034D0006A016A026A036A2FD029
:100510005D6A5E1E5F1E601F5D1E5D2A05E15E2A2C
:1005200003E15F2A01E1602B5CB015D75CB256D7BE
:100530005CB48AD7B3D7EF505E2605E35F2A03E1A8
:10054000602BD8B45A80ED52EF505F2603E3602B46
:10055000D8B45A80ED52EF50EFBE01D0800A602728
:10056000D8B05A805CB8FED65CBA3FD774D71200B8
:100570008E0E006E4E50005E4FC002F050C001F073
:10058000028E005209E0D890025202E1015204E0CA
:1005900002320132002EF7D74FAE05D0011E021EE7
:1005A000012AD8B4022A1200C282C2B2FED7C3CF37
:1005B00036F0C4CF37F09A0E516E990E506E190E68
:1005C0004F6E7E0E4E6E31C055F030C054F02FC0CD
:1005D00053F02EC052F003DE03C03BF002C03AF0ED
:1005E00001C039F000C038F037C053F036C052F0C7
:1005F0006FDECD0E516ECC0E506E4C0E4F6E7D0EDA
:100600004E6E03C055F002C054F001C053F000C05C
:1006100052F0E5DDD8923BC055F03AC054F039C0F5
:1006200053F038C052F003C059F002C058F001C076
:1006300057F000C056F067DE03C031F002C030F062
:1006400001C02FF000C02EF031C051F030C050F08A
:100650002FC04FF02EC04EF08BDF0250D3EF04F0CE
:100660005250D8B4A5D05E6E5650D8B4A1D05E5EBC
:1006700005E37F0E5E26D8B09BD006D0810E5E5E6D
:10068000D8A096D0D8B494D05EC000F0016A026AB7
:10069000036A5D6A53C05CF05C8E54C05BF055C069
:1006A0005AF0190E5E6E59505A5E0DE2010E5B5EF5
:1006B0000AE25C5E08E25D5E06E25D2A5C2A5B2A75
:1006C00059505A2628D058505B5E12E2010E5C5EEB
:1006D0000FE25D5E0DE25D2A5C2A58505B265950A0
:1006E0005A2619E35B2A17E15C2A15E15D2A13D02B
:1006F000575080095C5E0EE2010E5D5E0BE25D2AE2
:10070000575080095C2658505B26E9E35C2AE7E1F4
:100710005D2AE5D703805E2E01D00BD0D8905A36E3
:100720005B365C365D36D8900336023601365F366E
:10073000BAD75FA006D0D8900132023203325F32BE
:1007400002D0000635E05FBE1ED0D8905A365B3628
:100750005C365D3659505A5E07E2010E5B5E04E27C
:100760005C5E02E25D5E1AE358505B5E05E2010EDC
:100770005C5E02E25D5E12E3575080095C5E03E25C
:10078000010E5D5E0BE3032A09E1022A07E1012A5B
:1007900005E1002A0DE001320232033253C05EF05F
:1007A00057505E1A5EAE02D0018E06D0019E04D074
:1007B000006A016A026A036A0DEF04F03A503C5C79
:1007C000426E3B503D58436E3E50405C446E3F503D
:1007D0004158456E45C053F044C052F079DD03C026
:1007E00051F002C050F001C04FF000C04EF043C0C5
:1007F00053F042C052F06CDD51C055F050C054F07F
:100800004FC053F04EC052F003C059F002C058F030
:1008100001C057F000C056F023D7516A506A4F6AA2
:100820007F0E4E6E03C055F002C054F001C053F06D
:1008300000C052F0D4DC03C049F002C048F001C04F
:1008400047F000C046F03A50385C006E3B503958D3
:10085000036E00C052F0536E3BDD49C051F048C0FA
:1008600050F047C04FF046C04EF003C055F002C0F4
:1008700054F001C053F000C052F0B1DC03C051F09D
:1008800002C050F001C04FF000C04EF03FC053F026
:100890003EC052F01DDDD89203C055F002C054F0A6
:1008A00001C053F000C052F051C059F050C058F090
:1008B0004FC057F04EC056F026DD03C04DF002C0C9
:1008C0004CF001C04BF000C04AF04DC051F04CC09C
:1008D00050F04BC04FF04AC04EF04ADE02501200BA
:1008E0003750020809E2FF0A03E13650200804E20B
:1008F000030E376E200E366E375206E1365057081B
:1009000003E3F29A8B9801D0F28A37C039F036C0EF
:1009100038F03B6A3A6A030E3D6E200E3C6E0B0EB9
:100920003F6EB80E3E6EEA0E416E600E406E46DFC0
:1009300002C020F001C01FF0EFEF04F0F86AD09E73
:10094000078EC30E206E500E1F6E256A4D0E246E4C
:10095000276A990E266E296AE70E286E2B6A080E02
:100960002A6E2D6A170E2C6EC150C00B0F09C16E76
:10097000070EB46E196A1A6A2E6A2F6A306A316AD3
:10098000BBEF00F08B968B828B9404D4BB6ABA5079
:10099000CF0BBA6ED190F292F090C00EF21221A459
:1009A0001ED0219401D602C033F001C032F033C012
:1009B00039F032C038F03B6A3A6A030E3D6E3C684B
:1009C0003F6A3E6A416E200E406EF8DE02C035F08E
:1009D00001C034F035C037F034C036F081D7DFD7EE
:0209E000030012
:020000040030CA
:0E00000000C2181E008690000FC00FE00F40D7
:00000001FF
;PIC18F4480
;CRC=223C  CREATED="24-ene.-23 16:50"
